{
  "contractName": "FractionalNFT",
  "abi": [
    {
      "inputs": [
        {
          "internalType": "string",
          "name": "name",
          "type": "string"
        },
        {
          "internalType": "string",
          "name": "symbol",
          "type": "string"
        }
      ],
      "stateMutability": "nonpayable",
      "type": "constructor"
    },
    {
      "inputs": [
        {
          "internalType": "address",
          "name": "sender",
          "type": "address"
        },
        {
          "internalType": "uint256",
          "name": "tokenId",
          "type": "uint256"
        },
        {
          "internalType": "address",
          "name": "owner",
          "type": "address"
        }
      ],
      "name": "ERC721IncorrectOwner",
      "type": "error"
    },
    {
      "inputs": [
        {
          "internalType": "address",
          "name": "operator",
          "type": "address"
        },
        {
          "internalType": "uint256",
          "name": "tokenId",
          "type": "uint256"
        }
      ],
      "name": "ERC721InsufficientApproval",
      "type": "error"
    },
    {
      "inputs": [
        {
          "internalType": "address",
          "name": "approver",
          "type": "address"
        }
      ],
      "name": "ERC721InvalidApprover",
      "type": "error"
    },
    {
      "inputs": [
        {
          "internalType": "address",
          "name": "operator",
          "type": "address"
        }
      ],
      "name": "ERC721InvalidOperator",
      "type": "error"
    },
    {
      "inputs": [
        {
          "internalType": "address",
          "name": "owner",
          "type": "address"
        }
      ],
      "name": "ERC721InvalidOwner",
      "type": "error"
    },
    {
      "inputs": [
        {
          "internalType": "address",
          "name": "receiver",
          "type": "address"
        }
      ],
      "name": "ERC721InvalidReceiver",
      "type": "error"
    },
    {
      "inputs": [
        {
          "internalType": "address",
          "name": "sender",
          "type": "address"
        }
      ],
      "name": "ERC721InvalidSender",
      "type": "error"
    },
    {
      "inputs": [
        {
          "internalType": "uint256",
          "name": "tokenId",
          "type": "uint256"
        }
      ],
      "name": "ERC721NonexistentToken",
      "type": "error"
    },
    {
      "anonymous": false,
      "inputs": [
        {
          "indexed": true,
          "internalType": "address",
          "name": "owner",
          "type": "address"
        },
        {
          "indexed": true,
          "internalType": "address",
          "name": "approved",
          "type": "address"
        },
        {
          "indexed": true,
          "internalType": "uint256",
          "name": "tokenId",
          "type": "uint256"
        }
      ],
      "name": "Approval",
      "type": "event"
    },
    {
      "anonymous": false,
      "inputs": [
        {
          "indexed": true,
          "internalType": "address",
          "name": "owner",
          "type": "address"
        },
        {
          "indexed": true,
          "internalType": "address",
          "name": "operator",
          "type": "address"
        },
        {
          "indexed": false,
          "internalType": "bool",
          "name": "approved",
          "type": "bool"
        }
      ],
      "name": "ApprovalForAll",
      "type": "event"
    },
    {
      "anonymous": false,
      "inputs": [
        {
          "indexed": false,
          "internalType": "uint256",
          "name": "_fromTokenId",
          "type": "uint256"
        },
        {
          "indexed": false,
          "internalType": "uint256",
          "name": "_toTokenId",
          "type": "uint256"
        }
      ],
      "name": "BatchMetadataUpdate",
      "type": "event"
    },
    {
      "anonymous": false,
      "inputs": [
        {
          "indexed": false,
          "internalType": "uint256",
          "name": "_tokenId",
          "type": "uint256"
        }
      ],
      "name": "MetadataUpdate",
      "type": "event"
    },
    {
      "anonymous": false,
      "inputs": [
        {
          "indexed": true,
          "internalType": "address",
          "name": "from",
          "type": "address"
        },
        {
          "indexed": true,
          "internalType": "address",
          "name": "to",
          "type": "address"
        },
        {
          "indexed": true,
          "internalType": "uint256",
          "name": "tokenId",
          "type": "uint256"
        }
      ],
      "name": "Transfer",
      "type": "event"
    },
    {
      "inputs": [
        {
          "internalType": "address",
          "name": "to",
          "type": "address"
        },
        {
          "internalType": "uint256",
          "name": "tokenId",
          "type": "uint256"
        }
      ],
      "name": "approve",
      "outputs": [],
      "stateMutability": "nonpayable",
      "type": "function"
    },
    {
      "inputs": [
        {
          "internalType": "address",
          "name": "owner",
          "type": "address"
        }
      ],
      "name": "balanceOf",
      "outputs": [
        {
          "internalType": "uint256",
          "name": "",
          "type": "uint256"
        }
      ],
      "stateMutability": "view",
      "type": "function",
      "constant": true
    },
    {
      "inputs": [],
      "name": "fractionalToken",
      "outputs": [
        {
          "internalType": "address",
          "name": "",
          "type": "address"
        }
      ],
      "stateMutability": "view",
      "type": "function",
      "constant": true
    },
    {
      "inputs": [
        {
          "internalType": "uint256",
          "name": "tokenId",
          "type": "uint256"
        }
      ],
      "name": "getApproved",
      "outputs": [
        {
          "internalType": "address",
          "name": "",
          "type": "address"
        }
      ],
      "stateMutability": "view",
      "type": "function",
      "constant": true
    },
    {
      "inputs": [
        {
          "internalType": "address",
          "name": "owner",
          "type": "address"
        },
        {
          "internalType": "address",
          "name": "operator",
          "type": "address"
        }
      ],
      "name": "isApprovedForAll",
      "outputs": [
        {
          "internalType": "bool",
          "name": "",
          "type": "bool"
        }
      ],
      "stateMutability": "view",
      "type": "function",
      "constant": true
    },
    {
      "inputs": [
        {
          "internalType": "uint256",
          "name": "",
          "type": "uint256"
        }
      ],
      "name": "metadata",
      "outputs": [
        {
          "internalType": "uint256",
          "name": "loan_number",
          "type": "uint256"
        },
        {
          "internalType": "enum FractionalNFT.RiskTier",
          "name": "risk_tier",
          "type": "uint8"
        },
        {
          "internalType": "uint256",
          "name": "principal",
          "type": "uint256"
        },
        {
          "internalType": "uint256",
          "name": "interest",
          "type": "uint256"
        },
        {
          "internalType": "string",
          "name": "term",
          "type": "string"
        },
        {
          "internalType": "string",
          "name": "school",
          "type": "string"
        }
      ],
      "stateMutability": "view",
      "type": "function",
      "constant": true
    },
    {
      "inputs": [],
      "name": "name",
      "outputs": [
        {
          "internalType": "string",
          "name": "",
          "type": "string"
        }
      ],
      "stateMutability": "view",
      "type": "function",
      "constant": true
    },
    {
      "inputs": [
        {
          "internalType": "uint256",
          "name": "tokenId",
          "type": "uint256"
        }
      ],
      "name": "ownerOf",
      "outputs": [
        {
          "internalType": "address",
          "name": "",
          "type": "address"
        }
      ],
      "stateMutability": "view",
      "type": "function",
      "constant": true
    },
    {
      "inputs": [
        {
          "internalType": "address",
          "name": "from",
          "type": "address"
        },
        {
          "internalType": "address",
          "name": "to",
          "type": "address"
        },
        {
          "internalType": "uint256",
          "name": "tokenId",
          "type": "uint256"
        }
      ],
      "name": "safeTransferFrom",
      "outputs": [],
      "stateMutability": "nonpayable",
      "type": "function"
    },
    {
      "inputs": [
        {
          "internalType": "address",
          "name": "from",
          "type": "address"
        },
        {
          "internalType": "address",
          "name": "to",
          "type": "address"
        },
        {
          "internalType": "uint256",
          "name": "tokenId",
          "type": "uint256"
        },
        {
          "internalType": "bytes",
          "name": "data",
          "type": "bytes"
        }
      ],
      "name": "safeTransferFrom",
      "outputs": [],
      "stateMutability": "nonpayable",
      "type": "function"
    },
    {
      "inputs": [
        {
          "internalType": "address",
          "name": "operator",
          "type": "address"
        },
        {
          "internalType": "bool",
          "name": "approved",
          "type": "bool"
        }
      ],
      "name": "setApprovalForAll",
      "outputs": [],
      "stateMutability": "nonpayable",
      "type": "function"
    },
    {
      "inputs": [
        {
          "internalType": "bytes4",
          "name": "interfaceId",
          "type": "bytes4"
        }
      ],
      "name": "supportsInterface",
      "outputs": [
        {
          "internalType": "bool",
          "name": "",
          "type": "bool"
        }
      ],
      "stateMutability": "view",
      "type": "function",
      "constant": true
    },
    {
      "inputs": [],
      "name": "symbol",
      "outputs": [
        {
          "internalType": "string",
          "name": "",
          "type": "string"
        }
      ],
      "stateMutability": "view",
      "type": "function",
      "constant": true
    },
    {
      "inputs": [],
      "name": "tokenId",
      "outputs": [
        {
          "internalType": "uint256",
          "name": "",
          "type": "uint256"
        }
      ],
      "stateMutability": "view",
      "type": "function",
      "constant": true
    },
    {
      "inputs": [
        {
          "internalType": "uint256",
          "name": "tokenId",
          "type": "uint256"
        }
      ],
      "name": "tokenURI",
      "outputs": [
        {
          "internalType": "string",
          "name": "",
          "type": "string"
        }
      ],
      "stateMutability": "view",
      "type": "function",
      "constant": true
    },
    {
      "inputs": [
        {
          "internalType": "address",
          "name": "from",
          "type": "address"
        },
        {
          "internalType": "address",
          "name": "to",
          "type": "address"
        },
        {
          "internalType": "uint256",
          "name": "tokenId",
          "type": "uint256"
        }
      ],
      "name": "transferFrom",
      "outputs": [],
      "stateMutability": "nonpayable",
      "type": "function"
    },
    {
      "inputs": [
        {
          "internalType": "address",
          "name": "to",
          "type": "address"
        },
        {
          "internalType": "string",
          "name": "uri",
          "type": "string"
        },
        {
          "internalType": "uint256",
          "name": "totalFractions",
          "type": "uint256"
        },
        {
          "internalType": "uint256",
          "name": "loan_number",
          "type": "uint256"
        },
        {
          "internalType": "uint8",
          "name": "risk_tier",
          "type": "uint8"
        },
        {
          "internalType": "uint256",
          "name": "principal",
          "type": "uint256"
        },
        {
          "internalType": "uint256",
          "name": "interest",
          "type": "uint256"
        },
        {
          "internalType": "string",
          "name": "term",
          "type": "string"
        },
        {
          "internalType": "string",
          "name": "school",
          "type": "string"
        }
      ],
      "name": "mintAndFractionalize",
      "outputs": [],
      "stateMutability": "nonpayable",
      "type": "function"
    },
    {
      "inputs": [
        {
          "internalType": "uint256",
          "name": "id",
          "type": "uint256"
        }
      ],
      "name": "getMetadata",
      "outputs": [
        {
          "internalType": "uint256",
          "name": "loan_number",
          "type": "uint256"
        },
        {
          "internalType": "enum FractionalNFT.RiskTier",
          "name": "risk_tier",
          "type": "uint8"
        },
        {
          "internalType": "uint256",
          "name": "principal",
          "type": "uint256"
        },
        {
          "internalType": "uint256",
          "name": "interest",
          "type": "uint256"
        },
        {
          "internalType": "string",
          "name": "term",
          "type": "string"
        },
        {
          "internalType": "string",
          "name": "school",
          "type": "string"
        }
      ],
      "stateMutability": "view",
      "type": "function",
      "constant": true
    }
  ],
  "bytecode": "0x608060405234801562000010575f80fd5b5060405162004c4d38038062004c4d8339818101604052810190620000369190620001ea565b8181815f9081620000489190620004a4565b5080600190816200005a9190620004a4565b505050505062000588565b5f604051905090565b5f80fd5b5f80fd5b5f80fd5b5f80fd5b5f601f19601f8301169050919050565b7f4e487b71000000000000000000000000000000000000000000000000000000005f52604160045260245ffd5b620000c6826200007e565b810181811067ffffffffffffffff82111715620000e857620000e76200008e565b5b80604052505050565b5f620000fc62000065565b90506200010a8282620000bb565b919050565b5f67ffffffffffffffff8211156200012c576200012b6200008e565b5b62000137826200007e565b9050602081019050919050565b5f5b838110156200016357808201518184015260208101905062000146565b5f8484015250505050565b5f620001846200017e846200010f565b620000f1565b905082815260208101848484011115620001a357620001a26200007a565b5b620001b084828562000144565b509392505050565b5f82601f830112620001cf57620001ce62000076565b5b8151620001e18482602086016200016e565b91505092915050565b5f80604083850312156200020357620002026200006e565b5b5f83015167ffffffffffffffff81111562000223576200022262000072565b5b6200023185828601620001b8565b925050602083015167ffffffffffffffff81111562000255576200025462000072565b5b6200026385828601620001b8565b9150509250929050565b5f81519050919050565b7f4e487b71000000000000000000000000000000000000000000000000000000005f52602260045260245ffd5b5f6002820490506001821680620002bc57607f821691505b602082108103620002d257620002d162000277565b5b50919050565b5f819050815f5260205f209050919050565b5f6020601f8301049050919050565b5f82821b905092915050565b5f60088302620003367fffffffffffffffffffffffffffffffffffffffffffffffffffffffffffffffff82620002f9565b620003428683620002f9565b95508019841693508086168417925050509392505050565b5f819050919050565b5f819050919050565b5f6200038c6200038662000380846200035a565b62000363565b6200035a565b9050919050565b5f819050919050565b620003a7836200036c565b620003bf620003b68262000393565b84845462000305565b825550505050565b5f90565b620003d5620003c7565b620003e28184846200039c565b505050565b5b818110156200040957620003fd5f82620003cb565b600181019050620003e8565b5050565b601f82111562000458576200042281620002d8565b6200042d84620002ea565b810160208510156200043d578190505b620004556200044c85620002ea565b830182620003e7565b50505b505050565b5f82821c905092915050565b5f6200047a5f19846008026200045d565b1980831691505092915050565b5f62000494838362000469565b9150826002028217905092915050565b620004af826200026d565b67ffffffffffffffff811115620004cb57620004ca6200008e565b5b620004d78254620002a4565b620004e48282856200040d565b5f60209050601f8311600181146200051a575f841562000505578287015190505b62000511858262000487565b86555062000580565b601f1984166200052a86620002d8565b5f5b8281101562000553578489015182556001820191506020850194506020810190506200052c565b868310156200057357848901516200056f601f89168262000469565b8355505b6001600288020188555050505b505050505050565b6146b780620005965f395ff3fe608060405234801562000010575f80fd5b50600436106200012e575f3560e01c806370a0823111620000af578063b88d4fde1162000079578063b88d4fde146200034d578063c87b56dd146200036d578063c8e5154a14620003a3578063e3684e3914620003c3578063e985e9c514620003fe576200012e565b806370a08231146200029a57806395d89b4114620002d0578063a22cb46514620002f2578063a574cea41462000312576200012e565b806317d70f7c11620000fd57806317d70f7c14620001e057806323b872dd146200020257806332b61dce146200022257806342842e0e14620002445780636352211e1462000264576200012e565b806301ffc9a7146200013257806306fdde031462000168578063081812fc146200018a578063095ea7b314620001c0575b5f80fd5b6200015060048036038101906200014a919062001efa565b62000434565b6040516200015f919062001f46565b60405180910390f35b6200017262000497565b60405162000181919062001ff5565b60405180910390f35b620001a86004803603810190620001a291906200204f565b6200052e565b604051620001b79190620020c2565b60405180910390f35b620001de6004803603810190620001d891906200210c565b6200054d565b005b620001ea62000567565b604051620001f9919062002162565b60405180910390f35b6200022060048036038101906200021a91906200217d565b6200056d565b005b6200022c62000676565b6040516200023b9190620020c2565b60405180910390f35b6200026260048036038101906200025c91906200217d565b6200069b565b005b6200028260048036038101906200027c91906200204f565b620006bc565b604051620002919190620020c2565b60405180910390f35b620002b86004803603810190620002b29190620021d6565b620006cf565b604051620002c7919062002162565b60405180910390f35b620002da62000788565b604051620002e9919062001ff5565b60405180910390f35b6200031060048036038101906200030a919062002235565b62000820565b005b6200033060048036038101906200032a91906200204f565b6200083a565b6040516200034496959493929190620022f6565b60405180910390f35b6200036b6004803603810190620003659190620024b7565b62000a20565b005b6200038b60048036038101906200038591906200204f565b62000a4b565b6040516200039a919062001ff5565b60405180910390f35b620003c16004803603810190620003bb919062002631565b62000b6a565b005b620003e16004803603810190620003db91906200204f565b62000d75565b604051620003f596959493929190620022f6565b60405180910390f35b6200041c600480360381019062000416919062002767565b62000ed5565b6040516200042b919062001f46565b60405180910390f35b5f634906490660e01b7bffffffffffffffffffffffffffffffffffffffffffffffffffffffff1916827bffffffffffffffffffffffffffffffffffffffffffffffffffffffff191614806200049057506200048f8262000f63565b5b9050919050565b60605f8054620004a790620027d9565b80601f0160208091040260200160405190810160405280929190818152602001828054620004d590620027d9565b8015620005245780601f10620004fa5761010080835404028352916020019162000524565b820191905f5260205f20905b8154815290600101906020018083116200050657829003601f168201915b5050505050905090565b5f6200053a8262001048565b506200054682620010d3565b9050919050565b6200056382826200055d6200110c565b62001113565b5050565b60075481565b5f73ffffffffffffffffffffffffffffffffffffffff168273ffffffffffffffffffffffffffffffffffffffff1603620005e0575f6040517f64a0ae92000000000000000000000000000000000000000000000000000000008152600401620005d79190620020c2565b60405180910390fd5b5f620005f78383620005f16200110c565b62001127565b90508373ffffffffffffffffffffffffffffffffffffffff168173ffffffffffffffffffffffffffffffffffffffff161462000670578382826040517f64283d7b00000000000000000000000000000000000000000000000000000000815260040162000667939291906200280d565b60405180910390fd5b50505050565b60085f9054906101000a900473ffffffffffffffffffffffffffffffffffffffff1681565b620006b783838360405180602001604052805f81525062000a20565b505050565b5f620006c88262001048565b9050919050565b5f8073ffffffffffffffffffffffffffffffffffffffff168273ffffffffffffffffffffffffffffffffffffffff160362000743575f6040517f89c62b640000000000000000000000000000000000000000000000000000000081526004016200073a9190620020c2565b60405180910390fd5b60035f8373ffffffffffffffffffffffffffffffffffffffff1673ffffffffffffffffffffffffffffffffffffffff1681526020019081526020015f20549050919050565b6060600180546200079990620027d9565b80601f0160208091040260200160405190810160405280929190818152602001828054620007c790620027d9565b8015620008165780601f10620007ec5761010080835404028352916020019162000816565b820191905f5260205f20905b815481529060010190602001808311620007f857829003601f168201915b5050505050905090565b620008366200082e6200110c565b83836200133b565b5050565b5f805f806060805f60095f8981526020019081526020015f206040518060c00160405290815f8201548152602001600182015f9054906101000a900460ff1660028111156200088e576200088d6200227a565b5b6002811115620008a357620008a26200227a565b5b81526020016002820154815260200160038201548152602001600482018054620008cd90620027d9565b80601f0160208091040260200160405190810160405280929190818152602001828054620008fb90620027d9565b80156200094a5780601f1062000920576101008083540402835291602001916200094a565b820191905f5260205f20905b8154815290600101906020018083116200092c57829003601f168201915b505050505081526020016005820180546200096590620027d9565b80601f01602080910402602001604051908101604052809291908181526020018280546200099390620027d9565b8015620009e25780601f10620009b857610100808354040283529160200191620009e2565b820191905f5260205f20905b815481529060010190602001808311620009c457829003601f168201915b5050505050815250509050805f015181602001518260400151836060015184608001518560a001519650965096509650965096505091939550919395565b62000a2d8484846200056d565b62000a4562000a3b6200110c565b85858585620014a9565b50505050565b606062000a588262001048565b505f60065f8481526020019081526020015f20805462000a7890620027d9565b80601f016020809104026020016040519081016040528092919081815260200182805462000aa690620027d9565b801562000af55780601f1062000acb5761010080835404028352916020019162000af5565b820191905f5260205f20905b81548152906001019060200180831162000ad757829003601f168201915b505050505090505f62000b0762001664565b90505f81510362000b1d57819250505062000b65565b5f8251111562000b5557808260405160200162000b3c92919062002888565b6040516020818303038152906040529250505062000b65565b62000b60846200167a565b925050505b919050565b60028081111562000b805762000b7f6200227a565b5b60ff168560ff16111562000bcb576040517f08c379a000000000000000000000000000000000000000000000000000000000815260040162000bc290620028fd565b60405180910390fd5b62000bd989600754620016ea565b62000be760075489620017e5565b6040518060c001604052808781526020018660ff16600281111562000c115762000c106200227a565b5b600281111562000c265762000c256200227a565b5b81526020018581526020018481526020018381526020018281525060095f60075481526020019081526020015f205f820151815f01556020820151816001015f6101000a81548160ff0219169083600281111562000c895762000c886200227a565b5b02179055506040820151816002015560608201518160030155608082015181600401908162000cb9919062002ae0565b5060a082015181600501908162000cd1919062002ae0565b509050505f878a60405162000ce69062001e81565b62000cf392919062002c60565b604051809103905ff08015801562000d0d573d5f803e3d5ffd5b5090508060085f6101000a81548173ffffffffffffffffffffffffffffffffffffffff021916908373ffffffffffffffffffffffffffffffffffffffff16021790555060075f81548092919062000d649062002ce2565b919050555050505050505050505050565b6009602052805f5260405f205f91509050805f015490806001015f9054906101000a900460ff169080600201549080600301549080600401805462000dba90620027d9565b80601f016020809104026020016040519081016040528092919081815260200182805462000de890620027d9565b801562000e375780601f1062000e0d5761010080835404028352916020019162000e37565b820191905f5260205f20905b81548152906001019060200180831162000e1957829003601f168201915b50505050509080600501805462000e4e90620027d9565b80601f016020809104026020016040519081016040528092919081815260200182805462000e7c90620027d9565b801562000ecb5780601f1062000ea15761010080835404028352916020019162000ecb565b820191905f5260205f20905b81548152906001019060200180831162000ead57829003601f168201915b5050505050905086565b5f60055f8473ffffffffffffffffffffffffffffffffffffffff1673ffffffffffffffffffffffffffffffffffffffff1681526020019081526020015f205f8373ffffffffffffffffffffffffffffffffffffffff1673ffffffffffffffffffffffffffffffffffffffff1681526020019081526020015f205f9054906101000a900460ff16905092915050565b5f7f80ac58cd000000000000000000000000000000000000000000000000000000007bffffffffffffffffffffffffffffffffffffffffffffffffffffffff1916827bffffffffffffffffffffffffffffffffffffffffffffffffffffffff191614806200102e57507f5b5e139f000000000000000000000000000000000000000000000000000000007bffffffffffffffffffffffffffffffffffffffffffffffffffffffff1916827bffffffffffffffffffffffffffffffffffffffffffffffffffffffff1916145b80620010415750620010408262001843565b5b9050919050565b5f806200105583620018ac565b90505f73ffffffffffffffffffffffffffffffffffffffff168173ffffffffffffffffffffffffffffffffffffffff1603620010ca57826040517f7e273289000000000000000000000000000000000000000000000000000000008152600401620010c1919062002162565b60405180910390fd5b80915050919050565b5f60045f8381526020019081526020015f205f9054906101000a900473ffffffffffffffffffffffffffffffffffffffff169050919050565b5f33905090565b620011228383836001620018e5565b505050565b5f806200113484620018ac565b90505f73ffffffffffffffffffffffffffffffffffffffff168373ffffffffffffffffffffffffffffffffffffffff161462001178576200117781848662001ab0565b5b5f73ffffffffffffffffffffffffffffffffffffffff168173ffffffffffffffffffffffffffffffffffffffff16146200120657620011ba5f855f80620018e5565b600160035f8373ffffffffffffffffffffffffffffffffffffffff1673ffffffffffffffffffffffffffffffffffffffff1681526020019081526020015f205f82825403925050819055505b5f73ffffffffffffffffffffffffffffffffffffffff168573ffffffffffffffffffffffffffffffffffffffff16146200128657600160035f8773ffffffffffffffffffffffffffffffffffffffff1673ffffffffffffffffffffffffffffffffffffffff1681526020019081526020015f205f82825401925050819055505b8460025f8681526020019081526020015f205f6101000a81548173ffffffffffffffffffffffffffffffffffffffff021916908373ffffffffffffffffffffffffffffffffffffffff160217905550838573ffffffffffffffffffffffffffffffffffffffff168273ffffffffffffffffffffffffffffffffffffffff167fddf252ad1be2c89b69c2b068fc378daa952ba7f163c4a11628f55a4df523b3ef60405160405180910390a4809150509392505050565b5f73ffffffffffffffffffffffffffffffffffffffff168273ffffffffffffffffffffffffffffffffffffffff1603620013ae57816040517f5b08ba18000000000000000000000000000000000000000000000000000000008152600401620013a59190620020c2565b60405180910390fd5b8060055f8573ffffffffffffffffffffffffffffffffffffffff1673ffffffffffffffffffffffffffffffffffffffff1681526020019081526020015f205f8473ffffffffffffffffffffffffffffffffffffffff1673ffffffffffffffffffffffffffffffffffffffff1681526020019081526020015f205f6101000a81548160ff0219169083151502179055508173ffffffffffffffffffffffffffffffffffffffff168373ffffffffffffffffffffffffffffffffffffffff167f17307eab39ab6107e8899845ad3d59bd9653f200f220920489ca2b5937696c31836040516200149c919062001f46565b60405180910390a3505050565b5f8373ffffffffffffffffffffffffffffffffffffffff163b11156200165d578273ffffffffffffffffffffffffffffffffffffffff1663150b7a02868685856040518563ffffffff1660e01b81526004016200150a949392919062002d88565b6020604051808303815f875af19250505080156200154857506040513d601f19601f8201168201806040525081019062001545919062002df0565b60015b620015cf573d805f811462001579576040519150601f19603f3d011682016040523d82523d5f602084013e6200157e565b606091505b505f815103620015c757836040517f64a0ae92000000000000000000000000000000000000000000000000000000008152600401620015be9190620020c2565b60405180910390fd5b805181602001fd5b63150b7a0260e01b7bffffffffffffffffffffffffffffffffffffffffffffffffffffffff1916817bffffffffffffffffffffffffffffffffffffffffffffffffffffffff1916146200165b57836040517f64a0ae92000000000000000000000000000000000000000000000000000000008152600401620016529190620020c2565b60405180910390fd5b505b5050505050565b606060405180602001604052805f815250905090565b6060620016878262001048565b505f6200169362001664565b90505f815111620016b35760405180602001604052805f815250620016e2565b80620016bf8462001b7b565b604051602001620016d292919062002888565b6040516020818303038152906040525b915050919050565b5f73ffffffffffffffffffffffffffffffffffffffff168273ffffffffffffffffffffffffffffffffffffffff16036200175d575f6040517f64a0ae92000000000000000000000000000000000000000000000000000000008152600401620017549190620020c2565b60405180910390fd5b5f6200176b83835f62001127565b90505f73ffffffffffffffffffffffffffffffffffffffff168173ffffffffffffffffffffffffffffffffffffffff1614620017e0575f6040517f73c6ac6e000000000000000000000000000000000000000000000000000000008152600401620017d79190620020c2565b60405180910390fd5b505050565b8060065f8481526020019081526020015f20908162001805919062002ae0565b507ff8e1a15aba9398e019f0b49df1a4fde98ee17ae345cb5f6b5e2c27f5033e8ce78260405162001837919062002162565b60405180910390a15050565b5f7f01ffc9a7000000000000000000000000000000000000000000000000000000007bffffffffffffffffffffffffffffffffffffffffffffffffffffffff1916827bffffffffffffffffffffffffffffffffffffffffffffffffffffffff1916149050919050565b5f60025f8381526020019081526020015f205f9054906101000a900473ffffffffffffffffffffffffffffffffffffffff169050919050565b80806200191e57505f73ffffffffffffffffffffffffffffffffffffffff168273ffffffffffffffffffffffffffffffffffffffff1614155b1562001a5b575f620019308462001048565b90505f73ffffffffffffffffffffffffffffffffffffffff168373ffffffffffffffffffffffffffffffffffffffff16141580156200199b57508273ffffffffffffffffffffffffffffffffffffffff168173ffffffffffffffffffffffffffffffffffffffff1614155b8015620019b15750620019af818462000ed5565b155b15620019f657826040517fa9fbf51f000000000000000000000000000000000000000000000000000000008152600401620019ed9190620020c2565b60405180910390fd5b811562001a5957838573ffffffffffffffffffffffffffffffffffffffff168273ffffffffffffffffffffffffffffffffffffffff167f8c5be1e5ebec7d5bd14f71427d1e84f3dd0314c0f7b2291e5b200ac8c7c3b92560405160405180910390a45b505b8360045f8581526020019081526020015f205f6101000a81548173ffffffffffffffffffffffffffffffffffffffff021916908373ffffffffffffffffffffffffffffffffffffffff16021790555050505050565b62001abd83838362001c50565b62001b76575f73ffffffffffffffffffffffffffffffffffffffff168373ffffffffffffffffffffffffffffffffffffffff160362001b3557806040517f7e27328900000000000000000000000000000000000000000000000000000000815260040162001b2c919062002162565b60405180910390fd5b81816040517f177e802f00000000000000000000000000000000000000000000000000000000815260040162001b6d92919062002e20565b60405180910390fd5b505050565b60605f600162001b8b8462001d17565b0190505f8167ffffffffffffffff81111562001bac5762001bab62002377565b5b6040519080825280601f01601f19166020018201604052801562001bdf5781602001600182028036833780820191505090505b5090505f82602001820190505b60011562001c45578080600190039150507f3031323334353637383961626364656600000000000000000000000000000000600a86061a8153600a858162001c395762001c3862002e4b565b5b0494505f850362001bec575b819350505050919050565b5f8073ffffffffffffffffffffffffffffffffffffffff168373ffffffffffffffffffffffffffffffffffffffff161415801562001d0e57508273ffffffffffffffffffffffffffffffffffffffff168473ffffffffffffffffffffffffffffffffffffffff16148062001ccc575062001ccb848462000ed5565b5b8062001d0d57508273ffffffffffffffffffffffffffffffffffffffff1662001cf583620010d3565b73ffffffffffffffffffffffffffffffffffffffff16145b5b90509392505050565b5f805f90507a184f03e93ff9f4daa797ed6e38ed64bf6a1f010000000000000000831062001d77577a184f03e93ff9f4daa797ed6e38ed64bf6a1f010000000000000000838162001d6d5762001d6c62002e4b565b5b0492506040810190505b6d04ee2d6d415b85acef8100000000831062001db8576d04ee2d6d415b85acef8100000000838162001dae5762001dad62002e4b565b5b0492506020810190505b662386f26fc10000831062001deb57662386f26fc10000838162001de15762001de062002e4b565b5b0492506010810190505b6305f5e100831062001e18576305f5e100838162001e0e5762001e0d62002e4b565b5b0492506008810190505b612710831062001e4157612710838162001e375762001e3662002e4b565b5b0492506004810190505b6064831062001e68576064838162001e5e5762001e5d62002e4b565b5b0492506002810190505b600a831062001e78576001810190505b80915050919050565b6118098062002e7983390190565b5f604051905090565b5f80fd5b5f80fd5b5f7fffffffff0000000000000000000000000000000000000000000000000000000082169050919050565b62001ed68162001ea0565b811462001ee1575f80fd5b50565b5f8135905062001ef48162001ecb565b92915050565b5f6020828403121562001f125762001f1162001e98565b5b5f62001f218482850162001ee4565b91505092915050565b5f8115159050919050565b62001f408162001f2a565b82525050565b5f60208201905062001f5b5f83018462001f35565b92915050565b5f81519050919050565b5f82825260208201905092915050565b5f5b8381101562001f9a57808201518184015260208101905062001f7d565b5f8484015250505050565b5f601f19601f8301169050919050565b5f62001fc18262001f61565b62001fcd818562001f6b565b935062001fdf81856020860162001f7b565b62001fea8162001fa5565b840191505092915050565b5f6020820190508181035f8301526200200f818462001fb5565b905092915050565b5f819050919050565b6200202b8162002017565b811462002036575f80fd5b50565b5f81359050620020498162002020565b92915050565b5f6020828403121562002067576200206662001e98565b5b5f620020768482850162002039565b91505092915050565b5f73ffffffffffffffffffffffffffffffffffffffff82169050919050565b5f620020aa826200207f565b9050919050565b620020bc816200209e565b82525050565b5f602082019050620020d75f830184620020b1565b92915050565b620020e8816200209e565b8114620020f3575f80fd5b50565b5f813590506200210681620020dd565b92915050565b5f806040838503121562002125576200212462001e98565b5b5f6200213485828601620020f6565b9250506020620021478582860162002039565b9150509250929050565b6200215c8162002017565b82525050565b5f602082019050620021775f83018462002151565b92915050565b5f805f6060848603121562002197576200219662001e98565b5b5f620021a686828701620020f6565b9350506020620021b986828701620020f6565b9250506040620021cc8682870162002039565b9150509250925092565b5f60208284031215620021ee57620021ed62001e98565b5b5f620021fd84828501620020f6565b91505092915050565b620022118162001f2a565b81146200221c575f80fd5b50565b5f813590506200222f8162002206565b92915050565b5f80604083850312156200224e576200224d62001e98565b5b5f6200225d85828601620020f6565b925050602062002270858286016200221f565b9150509250929050565b7f4e487b71000000000000000000000000000000000000000000000000000000005f52602160045260245ffd5b60038110620022bb57620022ba6200227a565b5b50565b5f819050620022cd82620022a7565b919050565b5f620022de82620022be565b9050919050565b620022f081620022d2565b82525050565b5f60c0820190506200230b5f83018962002151565b6200231a6020830188620022e5565b62002329604083018762002151565b62002338606083018662002151565b81810360808301526200234c818562001fb5565b905081810360a083015262002362818462001fb5565b9050979650505050505050565b5f80fd5b5f80fd5b7f4e487b71000000000000000000000000000000000000000000000000000000005f52604160045260245ffd5b620023af8262001fa5565b810181811067ffffffffffffffff82111715620023d157620023d062002377565b5b80604052505050565b5f620023e562001e8f565b9050620023f38282620023a4565b919050565b5f67ffffffffffffffff82111562002415576200241462002377565b5b620024208262001fa5565b9050602081019050919050565b828183375f83830152505050565b5f620024516200244b84620023f8565b620023da565b90508281526020810184848401111562002470576200246f62002373565b5b6200247d8482856200242d565b509392505050565b5f82601f8301126200249c576200249b6200236f565b5b8135620024ae8482602086016200243b565b91505092915050565b5f805f8060808587031215620024d257620024d162001e98565b5b5f620024e187828801620020f6565b9450506020620024f487828801620020f6565b9350506040620025078782880162002039565b925050606085013567ffffffffffffffff8111156200252b576200252a62001e9c565b5b620025398782880162002485565b91505092959194509250565b5f67ffffffffffffffff82111562002562576200256162002377565b5b6200256d8262001fa5565b9050602081019050919050565b5f620025906200258a8462002545565b620023da565b905082815260208101848484011115620025af57620025ae62002373565b5b620025bc8482856200242d565b509392505050565b5f82601f830112620025db57620025da6200236f565b5b8135620025ed8482602086016200257a565b91505092915050565b5f60ff82169050919050565b6200260d81620025f6565b811462002618575f80fd5b50565b5f813590506200262b8162002602565b92915050565b5f805f805f805f805f6101208a8c03121562002652576200265162001e98565b5b5f620026618c828d01620020f6565b99505060208a013567ffffffffffffffff81111562002685576200268462001e9c565b5b620026938c828d01620025c4565b9850506040620026a68c828d0162002039565b9750506060620026b98c828d0162002039565b9650506080620026cc8c828d016200261b565b95505060a0620026df8c828d0162002039565b94505060c0620026f28c828d0162002039565b93505060e08a013567ffffffffffffffff81111562002716576200271562001e9c565b5b620027248c828d01620025c4565b9250506101008a013567ffffffffffffffff81111562002749576200274862001e9c565b5b620027578c828d01620025c4565b9150509295985092959850929598565b5f806040838503121562002780576200277f62001e98565b5b5f6200278f85828601620020f6565b9250506020620027a285828601620020f6565b9150509250929050565b7f4e487b71000000000000000000000000000000000000000000000000000000005f52602260045260245ffd5b5f6002820490506001821680620027f157607f821691505b602082108103620028075762002806620027ac565b5b50919050565b5f606082019050620028225f830186620020b1565b62002831602083018562002151565b620028406040830184620020b1565b949350505050565b5f81905092915050565b5f6200285e8262001f61565b6200286a818562002848565b93506200287c81856020860162001f7b565b80840191505092915050565b5f62002895828562002852565b9150620028a3828462002852565b91508190509392505050565b7f496e76616c6964207269736b20746965720000000000000000000000000000005f82015250565b5f620028e560118362001f6b565b9150620028f282620028af565b602082019050919050565b5f6020820190508181035f8301526200291681620028d7565b9050919050565b5f819050815f5260205f209050919050565b5f6020601f8301049050919050565b5f82821b905092915050565b5f600883026200297b7fffffffffffffffffffffffffffffffffffffffffffffffffffffffffffffffff826200293e565b6200298786836200293e565b95508019841693508086168417925050509392505050565b5f819050919050565b5f620029c8620029c2620029bc8462002017565b6200299f565b62002017565b9050919050565b5f819050919050565b620029e383620029a8565b620029fb620029f282620029cf565b8484546200294a565b825550505050565b5f90565b62002a1162002a03565b62002a1e818484620029d8565b505050565b5b8181101562002a455762002a395f8262002a07565b60018101905062002a24565b5050565b601f82111562002a945762002a5e816200291d565b62002a69846200292f565b8101602085101562002a79578190505b62002a9162002a88856200292f565b83018262002a23565b50505b505050565b5f82821c905092915050565b5f62002ab65f198460080262002a99565b1980831691505092915050565b5f62002ad0838362002aa5565b9150826002028217905092915050565b62002aeb8262001f61565b67ffffffffffffffff81111562002b075762002b0662002377565b5b62002b138254620027d9565b62002b2082828562002a49565b5f60209050601f83116001811462002b56575f841562002b41578287015190505b62002b4d858262002ac3565b86555062002bbc565b601f19841662002b66866200291d565b5f5b8281101562002b8f5784890151825560018201915060208501945060208101905062002b68565b8683101562002baf578489015162002bab601f89168262002aa5565b8355505b6001600288020188555050505b505050505050565b7f4672616374696f6e546f6b656e000000000000000000000000000000000000005f82015250565b5f62002bfa600d8362001f6b565b915062002c078262002bc4565b602082019050919050565b7f46524143540000000000000000000000000000000000000000000000000000005f82015250565b5f62002c4860058362001f6b565b915062002c558262002c12565b602082019050919050565b5f6080820190508181035f83015262002c798162002bec565b9050818103602083015262002c8e8162002c3a565b905062002c9f604083018562002151565b62002cae6060830184620020b1565b9392505050565b7f4e487b71000000000000000000000000000000000000000000000000000000005f52601160045260245ffd5b5f62002cee8262002017565b91507fffffffffffffffffffffffffffffffffffffffffffffffffffffffffffffffff820362002d235762002d2262002cb5565b5b600182019050919050565b5f81519050919050565b5f82825260208201905092915050565b5f62002d548262002d2e565b62002d60818562002d38565b935062002d7281856020860162001f7b565b62002d7d8162001fa5565b840191505092915050565b5f60808201905062002d9d5f830187620020b1565b62002dac6020830186620020b1565b62002dbb604083018562002151565b818103606083015262002dcf818462002d48565b905095945050505050565b5f8151905062002dea8162001ecb565b92915050565b5f6020828403121562002e085762002e0762001e98565b5b5f62002e178482850162002dda565b91505092915050565b5f60408201905062002e355f830185620020b1565b62002e44602083018462002151565b9392505050565b7f4e487b71000000000000000000000000000000000000000000000000000000005f52601260045260245ffdfe608060405234801562000010575f80fd5b506040516200180938038062001809833981810160405281019062000036919062000546565b8383816003908162000049919062000821565b5080600490816200005b919062000821565b5050506200007081836200007a60201b60201c565b50505050620009ff565b5f73ffffffffffffffffffffffffffffffffffffffff168273ffffffffffffffffffffffffffffffffffffffff1603620000ed575f6040517fec442f05000000000000000000000000000000000000000000000000000000008152600401620000e4919062000916565b60405180910390fd5b620001005f83836200010460201b60201c565b5050565b5f73ffffffffffffffffffffffffffffffffffffffff168373ffffffffffffffffffffffffffffffffffffffff160362000158578060025f8282546200014b91906200095e565b9250508190555062000229565b5f805f8573ffffffffffffffffffffffffffffffffffffffff1673ffffffffffffffffffffffffffffffffffffffff1681526020019081526020015f2054905081811015620001e4578381836040517fe450d38c000000000000000000000000000000000000000000000000000000008152600401620001db93929190620009a9565b60405180910390fd5b8181035f808673ffffffffffffffffffffffffffffffffffffffff1673ffffffffffffffffffffffffffffffffffffffff1681526020019081526020015f2081905550505b5f73ffffffffffffffffffffffffffffffffffffffff168273ffffffffffffffffffffffffffffffffffffffff160362000272578060025f8282540392505081905550620002bc565b805f808473ffffffffffffffffffffffffffffffffffffffff1673ffffffffffffffffffffffffffffffffffffffff1681526020019081526020015f205f82825401925050819055505b8173ffffffffffffffffffffffffffffffffffffffff168373ffffffffffffffffffffffffffffffffffffffff167fddf252ad1be2c89b69c2b068fc378daa952ba7f163c4a11628f55a4df523b3ef836040516200031b9190620009e4565b60405180910390a3505050565b5f604051905090565b5f80fd5b5f80fd5b5f80fd5b5f80fd5b5f601f19601f8301169050919050565b7f4e487b71000000000000000000000000000000000000000000000000000000005f52604160045260245ffd5b620003898262000341565b810181811067ffffffffffffffff82111715620003ab57620003aa62000351565b5b80604052505050565b5f620003bf62000328565b9050620003cd82826200037e565b919050565b5f67ffffffffffffffff821115620003ef57620003ee62000351565b5b620003fa8262000341565b9050602081019050919050565b5f5b838110156200042657808201518184015260208101905062000409565b5f8484015250505050565b5f620004476200044184620003d2565b620003b4565b9050828152602081018484840111156200046657620004656200033d565b5b6200047384828562000407565b509392505050565b5f82601f83011262000492576200049162000339565b5b8151620004a484826020860162000431565b91505092915050565b5f819050919050565b620004c181620004ad565b8114620004cc575f80fd5b50565b5f81519050620004df81620004b6565b92915050565b5f73ffffffffffffffffffffffffffffffffffffffff82169050919050565b5f6200051082620004e5565b9050919050565b620005228162000504565b81146200052d575f80fd5b50565b5f81519050620005408162000517565b92915050565b5f805f806080858703121562000561576200056062000331565b5b5f85015167ffffffffffffffff81111562000581576200058062000335565b5b6200058f878288016200047b565b945050602085015167ffffffffffffffff811115620005b357620005b262000335565b5b620005c1878288016200047b565b9350506040620005d487828801620004cf565b9250506060620005e78782880162000530565b91505092959194509250565b5f81519050919050565b7f4e487b71000000000000000000000000000000000000000000000000000000005f52602260045260245ffd5b5f60028204905060018216806200064257607f821691505b602082108103620006585762000657620005fd565b5b50919050565b5f819050815f5260205f209050919050565b5f6020601f8301049050919050565b5f82821b905092915050565b5f60088302620006bc7fffffffffffffffffffffffffffffffffffffffffffffffffffffffffffffffff826200067f565b620006c886836200067f565b95508019841693508086168417925050509392505050565b5f819050919050565b5f6200070962000703620006fd84620004ad565b620006e0565b620004ad565b9050919050565b5f819050919050565b6200072483620006e9565b6200073c620007338262000710565b8484546200068b565b825550505050565b5f90565b6200075262000744565b6200075f81848462000719565b505050565b5b8181101562000786576200077a5f8262000748565b60018101905062000765565b5050565b601f821115620007d5576200079f816200065e565b620007aa8462000670565b81016020851015620007ba578190505b620007d2620007c98562000670565b83018262000764565b50505b505050565b5f82821c905092915050565b5f620007f75f1984600802620007da565b1980831691505092915050565b5f620008118383620007e6565b9150826002028217905092915050565b6200082c82620005f3565b67ffffffffffffffff81111562000848576200084762000351565b5b6200085482546200062a565b620008618282856200078a565b5f60209050601f83116001811462000897575f841562000882578287015190505b6200088e858262000804565b865550620008fd565b601f198416620008a7866200065e565b5f5b82811015620008d057848901518255600182019150602085019450602081019050620008a9565b86831015620008f05784890151620008ec601f891682620007e6565b8355505b6001600288020188555050505b505050505050565b620009108162000504565b82525050565b5f6020820190506200092b5f83018462000905565b92915050565b7f4e487b71000000000000000000000000000000000000000000000000000000005f52601160045260245ffd5b5f6200096a82620004ad565b91506200097783620004ad565b925082820190508082111562000992576200099162000931565b5b92915050565b620009a381620004ad565b82525050565b5f606082019050620009be5f83018662000905565b620009cd602083018562000998565b620009dc604083018462000998565b949350505050565b5f602082019050620009f95f83018462000998565b92915050565b610dfc8062000a0d5f395ff3fe608060405234801561000f575f80fd5b5060043610610091575f3560e01c8063313ce56711610064578063313ce5671461013157806370a082311461014f57806395d89b411461017f578063a9059cbb1461019d578063dd62ed3e146101cd57610091565b806306fdde0314610095578063095ea7b3146100b357806318160ddd146100e357806323b872dd14610101575b5f80fd5b61009d6101fd565b6040516100aa9190610a75565b60405180910390f35b6100cd60048036038101906100c89190610b26565b61028d565b6040516100da9190610b7e565b60405180910390f35b6100eb6102af565b6040516100f89190610ba6565b60405180910390f35b61011b60048036038101906101169190610bbf565b6102b8565b6040516101289190610b7e565b60405180910390f35b6101396102e6565b6040516101469190610c2a565b60405180910390f35b61016960048036038101906101649190610c43565b6102ee565b6040516101769190610ba6565b60405180910390f35b610187610333565b6040516101949190610a75565b60405180910390f35b6101b760048036038101906101b29190610b26565b6103c3565b6040516101c49190610b7e565b60405180910390f35b6101e760048036038101906101e29190610c6e565b6103e5565b6040516101f49190610ba6565b60405180910390f35b60606003805461020c90610cd9565b80601f016020809104026020016040519081016040528092919081815260200182805461023890610cd9565b80156102835780601f1061025a57610100808354040283529160200191610283565b820191905f5260205f20905b81548152906001019060200180831161026657829003601f168201915b5050505050905090565b5f80610297610467565b90506102a481858561046e565b600191505092915050565b5f600254905090565b5f806102c2610467565b90506102cf858285610480565b6102da858585610513565b60019150509392505050565b5f6012905090565b5f805f8373ffffffffffffffffffffffffffffffffffffffff1673ffffffffffffffffffffffffffffffffffffffff1681526020019081526020015f20549050919050565b60606004805461034290610cd9565b80601f016020809104026020016040519081016040528092919081815260200182805461036e90610cd9565b80156103b95780601f10610390576101008083540402835291602001916103b9565b820191905f5260205f20905b81548152906001019060200180831161039c57829003601f168201915b5050505050905090565b5f806103cd610467565b90506103da818585610513565b600191505092915050565b5f60015f8473ffffffffffffffffffffffffffffffffffffffff1673ffffffffffffffffffffffffffffffffffffffff1681526020019081526020015f205f8373ffffffffffffffffffffffffffffffffffffffff1673ffffffffffffffffffffffffffffffffffffffff1681526020019081526020015f2054905092915050565b5f33905090565b61047b8383836001610603565b505050565b5f61048b84846103e5565b90507fffffffffffffffffffffffffffffffffffffffffffffffffffffffffffffffff81101561050d57818110156104fe578281836040517ffb8f41b20000000000000000000000000000000000000000000000000000000081526004016104f593929190610d18565b60405180910390fd5b61050c84848484035f610603565b5b50505050565b5f73ffffffffffffffffffffffffffffffffffffffff168373ffffffffffffffffffffffffffffffffffffffff1603610583575f6040517f96c6fd1e00000000000000000000000000000000000000000000000000000000815260040161057a9190610d4d565b60405180910390fd5b5f73ffffffffffffffffffffffffffffffffffffffff168273ffffffffffffffffffffffffffffffffffffffff16036105f3575f6040517fec442f050000000000000000000000000000000000000000000000000000000081526004016105ea9190610d4d565b60405180910390fd5b6105fe8383836107d2565b505050565b5f73ffffffffffffffffffffffffffffffffffffffff168473ffffffffffffffffffffffffffffffffffffffff1603610673575f6040517fe602df0500000000000000000000000000000000000000000000000000000000815260040161066a9190610d4d565b60405180910390fd5b5f73ffffffffffffffffffffffffffffffffffffffff168373ffffffffffffffffffffffffffffffffffffffff16036106e3575f6040517f94280d620000000000000000000000000000000000000000000000000000000081526004016106da9190610d4d565b60405180910390fd5b8160015f8673ffffffffffffffffffffffffffffffffffffffff1673ffffffffffffffffffffffffffffffffffffffff1681526020019081526020015f205f8573ffffffffffffffffffffffffffffffffffffffff1673ffffffffffffffffffffffffffffffffffffffff1681526020019081526020015f208190555080156107cc578273ffffffffffffffffffffffffffffffffffffffff168473ffffffffffffffffffffffffffffffffffffffff167f8c5be1e5ebec7d5bd14f71427d1e84f3dd0314c0f7b2291e5b200ac8c7c3b925846040516107c39190610ba6565b60405180910390a35b50505050565b5f73ffffffffffffffffffffffffffffffffffffffff168373ffffffffffffffffffffffffffffffffffffffff1603610822578060025f8282546108169190610d93565b925050819055506108f0565b5f805f8573ffffffffffffffffffffffffffffffffffffffff1673ffffffffffffffffffffffffffffffffffffffff1681526020019081526020015f20549050818110156108ab578381836040517fe450d38c0000000000000000000000000000000000000000000000000000000081526004016108a293929190610d18565b60405180910390fd5b8181035f808673ffffffffffffffffffffffffffffffffffffffff1673ffffffffffffffffffffffffffffffffffffffff1681526020019081526020015f2081905550505b5f73ffffffffffffffffffffffffffffffffffffffff168273ffffffffffffffffffffffffffffffffffffffff1603610937578060025f8282540392505081905550610981565b805f808473ffffffffffffffffffffffffffffffffffffffff1673ffffffffffffffffffffffffffffffffffffffff1681526020019081526020015f205f82825401925050819055505b8173ffffffffffffffffffffffffffffffffffffffff168373ffffffffffffffffffffffffffffffffffffffff167fddf252ad1be2c89b69c2b068fc378daa952ba7f163c4a11628f55a4df523b3ef836040516109de9190610ba6565b60405180910390a3505050565b5f81519050919050565b5f82825260208201905092915050565b5f5b83811015610a22578082015181840152602081019050610a07565b5f8484015250505050565b5f601f19601f8301169050919050565b5f610a47826109eb565b610a5181856109f5565b9350610a61818560208601610a05565b610a6a81610a2d565b840191505092915050565b5f6020820190508181035f830152610a8d8184610a3d565b905092915050565b5f80fd5b5f73ffffffffffffffffffffffffffffffffffffffff82169050919050565b5f610ac282610a99565b9050919050565b610ad281610ab8565b8114610adc575f80fd5b50565b5f81359050610aed81610ac9565b92915050565b5f819050919050565b610b0581610af3565b8114610b0f575f80fd5b50565b5f81359050610b2081610afc565b92915050565b5f8060408385031215610b3c57610b3b610a95565b5b5f610b4985828601610adf565b9250506020610b5a85828601610b12565b9150509250929050565b5f8115159050919050565b610b7881610b64565b82525050565b5f602082019050610b915f830184610b6f565b92915050565b610ba081610af3565b82525050565b5f602082019050610bb95f830184610b97565b92915050565b5f805f60608486031215610bd657610bd5610a95565b5b5f610be386828701610adf565b9350506020610bf486828701610adf565b9250506040610c0586828701610b12565b9150509250925092565b5f60ff82169050919050565b610c2481610c0f565b82525050565b5f602082019050610c3d5f830184610c1b565b92915050565b5f60208284031215610c5857610c57610a95565b5b5f610c6584828501610adf565b91505092915050565b5f8060408385031215610c8457610c83610a95565b5b5f610c9185828601610adf565b9250506020610ca285828601610adf565b9150509250929050565b7f4e487b71000000000000000000000000000000000000000000000000000000005f52602260045260245ffd5b5f6002820490506001821680610cf057607f821691505b602082108103610d0357610d02610cac565b5b50919050565b610d1281610ab8565b82525050565b5f606082019050610d2b5f830186610d09565b610d386020830185610b97565b610d456040830184610b97565b949350505050565b5f602082019050610d605f830184610d09565b92915050565b7f4e487b71000000000000000000000000000000000000000000000000000000005f52601160045260245ffd5b5f610d9d82610af3565b9150610da883610af3565b9250828201905080821115610dc057610dbf610d66565b5b9291505056fea2646970667358221220554953e64a64ad2f29f601e25acfde3bf3821b069f97cd607a595f4a435e60d064736f6c63430008140033a26469706673582212209d36e4ce0a6bb833d6681d3e8f2b123245f15627c4ffc8097541908bf4c9d69164736f6c63430008140033",
  "immutableReferences": {},
  "source": "// SPDX-License-Identifier: MIT\r\npragma solidity ^0.8.20;\r\n\r\nimport \"@openzeppelin/contracts/token/ERC721/extensions/ERC721URIStorage.sol\";\r\nimport \"@openzeppelin/contracts/token/ERC20/ERC20.sol\";\r\n\r\ncontract FractionalNFT is ERC721URIStorage {\r\n    uint256 public tokenId;\r\n    address public fractionalToken;\r\n\r\n    enum RiskTier { Low, Medium, High } // Maps to 0,1,2 internally\r\n\r\n    struct LoanMetadata {\r\n        uint256 loan_number;\r\n        RiskTier risk_tier;\r\n        uint256 principal;\r\n        uint256 interest;\r\n        string term;\r\n        string school;\r\n    }\r\n\r\n    mapping(uint256 => LoanMetadata) public metadata;\r\n\r\n    constructor(string memory name, string memory symbol) ERC721(name, symbol) {}\r\n\r\n    function mintAndFractionalize(\r\n        address to,\r\n        string memory uri,\r\n        uint256 totalFractions,\r\n        uint256 loan_number,\r\n        uint8 risk_tier, // Must be 0, 1, or 2\r\n        uint256 principal,\r\n        uint256 interest,\r\n        string memory term,\r\n        string memory school\r\n    ) public {\r\n        require(risk_tier <= uint8(RiskTier.High), \"Invalid risk tier\");\r\n\r\n        _mint(to, tokenId);\r\n        _setTokenURI(tokenId, uri);\r\n\r\n        metadata[tokenId] = LoanMetadata({\r\n            loan_number: loan_number,\r\n            risk_tier: RiskTier(risk_tier),\r\n            principal: principal,\r\n            interest: interest,\r\n            term: term,\r\n            school: school\r\n        });\r\n\r\n        FractionalToken ft = new FractionalToken(\"FractionToken\", \"FRACT\", totalFractions, to);\r\n        fractionalToken = address(ft);\r\n\r\n        tokenId++;\r\n    }\r\n\r\n    function getMetadata(uint256 id) external view returns (\r\n        uint256 loan_number,\r\n        RiskTier risk_tier,\r\n        uint256 principal,\r\n        uint256 interest,\r\n        string memory term,\r\n        string memory school\r\n    ) {\r\n        LoanMetadata memory data = metadata[id];\r\n        return (\r\n            data.loan_number,\r\n            data.risk_tier,\r\n            data.principal,\r\n            data.interest,\r\n            data.term,\r\n            data.school\r\n        );\r\n    }\r\n}\r\n\r\ncontract FractionalToken is ERC20 {\r\n    constructor(\r\n        string memory name,\r\n        string memory symbol,\r\n        uint256 totalSupply,\r\n        address owner\r\n    ) ERC20(name, symbol) {\r\n        _mint(owner, totalSupply);\r\n    }\r\n}\r\n",
  "sourcePath": "C:\\Users\\PC\\git\\erc-4675\\contracts\\FractionalNFT.sol",
  "compiler": {
    "name": "solc",
    "version": "0.8.20+commit.a1b79de6.Emscripten.clang"
  },
  "schemaVersion": "3.4.16",
  "updatedAt": "2025-03-31T19:29:15.194Z",
  "networkType": "ethereum",
  "devdoc": {
    "errors": {
      "ERC721IncorrectOwner(address,uint256,address)": [
        {
          "details": "Indicates an error related to the ownership over a particular token. Used in transfers.",
          "params": {
            "owner": "Address of the current owner of a token.",
            "sender": "Address whose tokens are being transferred.",
            "tokenId": "Identifier number of a token."
          }
        }
      ],
      "ERC721InsufficientApproval(address,uint256)": [
        {
          "details": "Indicates a failure with the `operator`s approval. Used in transfers.",
          "params": {
            "operator": "Address that may be allowed to operate on tokens without being their owner.",
            "tokenId": "Identifier number of a token."
          }
        }
      ],
      "ERC721InvalidApprover(address)": [
        {
          "details": "Indicates a failure with the `approver` of a token to be approved. Used in approvals.",
          "params": {
            "approver": "Address initiating an approval operation."
          }
        }
      ],
      "ERC721InvalidOperator(address)": [
        {
          "details": "Indicates a failure with the `operator` to be approved. Used in approvals.",
          "params": {
            "operator": "Address that may be allowed to operate on tokens without being their owner."
          }
        }
      ],
      "ERC721InvalidOwner(address)": [
        {
          "details": "Indicates that an address can't be an owner. For example, `address(0)` is a forbidden owner in ERC-20. Used in balance queries.",
          "params": {
            "owner": "Address of the current owner of a token."
          }
        }
      ],
      "ERC721InvalidReceiver(address)": [
        {
          "details": "Indicates a failure with the token `receiver`. Used in transfers.",
          "params": {
            "receiver": "Address to which tokens are being transferred."
          }
        }
      ],
      "ERC721InvalidSender(address)": [
        {
          "details": "Indicates a failure with the token `sender`. Used in transfers.",
          "params": {
            "sender": "Address whose tokens are being transferred."
          }
        }
      ],
      "ERC721NonexistentToken(uint256)": [
        {
          "details": "Indicates a `tokenId` whose `owner` is the zero address.",
          "params": {
            "tokenId": "Identifier number of a token."
          }
        }
      ]
    },
    "events": {
      "Approval(address,address,uint256)": {
        "details": "Emitted when `owner` enables `approved` to manage the `tokenId` token."
      },
      "ApprovalForAll(address,address,bool)": {
        "details": "Emitted when `owner` enables or disables (`approved`) `operator` to manage all of its assets."
      },
      "BatchMetadataUpdate(uint256,uint256)": {
        "details": "This event emits when the metadata of a range of tokens is changed. So that the third-party platforms such as NFT market could timely update the images and related attributes of the NFTs."
      },
      "MetadataUpdate(uint256)": {
        "details": "This event emits when the metadata of a token is changed. So that the third-party platforms such as NFT market could timely update the images and related attributes of the NFT."
      },
      "Transfer(address,address,uint256)": {
        "details": "Emitted when `tokenId` token is transferred from `from` to `to`."
      }
    },
    "kind": "dev",
    "methods": {
      "approve(address,uint256)": {
        "details": "See {IERC721-approve}."
      },
      "balanceOf(address)": {
        "details": "See {IERC721-balanceOf}."
      },
      "getApproved(uint256)": {
        "details": "See {IERC721-getApproved}."
      },
      "isApprovedForAll(address,address)": {
        "details": "See {IERC721-isApprovedForAll}."
      },
      "name()": {
        "details": "See {IERC721Metadata-name}."
      },
      "ownerOf(uint256)": {
        "details": "See {IERC721-ownerOf}."
      },
      "safeTransferFrom(address,address,uint256)": {
        "details": "See {IERC721-safeTransferFrom}."
      },
      "safeTransferFrom(address,address,uint256,bytes)": {
        "details": "See {IERC721-safeTransferFrom}."
      },
      "setApprovalForAll(address,bool)": {
        "details": "See {IERC721-setApprovalForAll}."
      },
      "supportsInterface(bytes4)": {
        "details": "See {IERC165-supportsInterface}"
      },
      "symbol()": {
        "details": "See {IERC721Metadata-symbol}."
      },
      "tokenURI(uint256)": {
        "details": "See {IERC721Metadata-tokenURI}."
      },
      "transferFrom(address,address,uint256)": {
        "details": "See {IERC721-transferFrom}."
      }
    },
    "version": 1
  },
  "userdoc": {
    "kind": "user",
    "methods": {},
    "version": 1
  }
}